{
  "_format": "hh-sol-artifact-1",
  "contractName": "SimpleNFT",
  "sourceName": "contracts/simpleNFT.sol",
  "abi": [
    {
      "inputs": [],
      "stateMutability": "nonpayable",
      "type": "constructor"
    },
    {
      "inputs": [
        {
          "internalType": "address",
          "name": "sender",
          "type": "address"
        },
        {
          "internalType": "uint256",
          "name": "tokenId",
          "type": "uint256"
        },
        {
          "internalType": "address",
          "name": "owner",
          "type": "address"
        }
      ],
      "name": "ERC721IncorrectOwner",
      "type": "error"
    },
    {
      "inputs": [
        {
          "internalType": "address",
          "name": "operator",
          "type": "address"
        },
        {
          "internalType": "uint256",
          "name": "tokenId",
          "type": "uint256"
        }
      ],
      "name": "ERC721InsufficientApproval",
      "type": "error"
    },
    {
      "inputs": [
        {
          "internalType": "address",
          "name": "approver",
          "type": "address"
        }
      ],
      "name": "ERC721InvalidApprover",
      "type": "error"
    },
    {
      "inputs": [
        {
          "internalType": "address",
          "name": "operator",
          "type": "address"
        }
      ],
      "name": "ERC721InvalidOperator",
      "type": "error"
    },
    {
      "inputs": [
        {
          "internalType": "address",
          "name": "owner",
          "type": "address"
        }
      ],
      "name": "ERC721InvalidOwner",
      "type": "error"
    },
    {
      "inputs": [
        {
          "internalType": "address",
          "name": "receiver",
          "type": "address"
        }
      ],
      "name": "ERC721InvalidReceiver",
      "type": "error"
    },
    {
      "inputs": [
        {
          "internalType": "address",
          "name": "sender",
          "type": "address"
        }
      ],
      "name": "ERC721InvalidSender",
      "type": "error"
    },
    {
      "inputs": [
        {
          "internalType": "uint256",
          "name": "tokenId",
          "type": "uint256"
        }
      ],
      "name": "ERC721NonexistentToken",
      "type": "error"
    },
    {
      "anonymous": false,
      "inputs": [
        {
          "indexed": true,
          "internalType": "address",
          "name": "owner",
          "type": "address"
        },
        {
          "indexed": true,
          "internalType": "address",
          "name": "approved",
          "type": "address"
        },
        {
          "indexed": true,
          "internalType": "uint256",
          "name": "tokenId",
          "type": "uint256"
        }
      ],
      "name": "Approval",
      "type": "event"
    },
    {
      "anonymous": false,
      "inputs": [
        {
          "indexed": true,
          "internalType": "address",
          "name": "owner",
          "type": "address"
        },
        {
          "indexed": true,
          "internalType": "address",
          "name": "operator",
          "type": "address"
        },
        {
          "indexed": false,
          "internalType": "bool",
          "name": "approved",
          "type": "bool"
        }
      ],
      "name": "ApprovalForAll",
      "type": "event"
    },
    {
      "anonymous": false,
      "inputs": [
        {
          "indexed": true,
          "internalType": "address",
          "name": "from",
          "type": "address"
        },
        {
          "indexed": true,
          "internalType": "address",
          "name": "to",
          "type": "address"
        },
        {
          "indexed": true,
          "internalType": "uint256",
          "name": "tokenId",
          "type": "uint256"
        }
      ],
      "name": "Transfer",
      "type": "event"
    },
    {
      "inputs": [
        {
          "internalType": "address",
          "name": "to",
          "type": "address"
        },
        {
          "internalType": "uint256",
          "name": "tokenId",
          "type": "uint256"
        }
      ],
      "name": "approve",
      "outputs": [],
      "stateMutability": "nonpayable",
      "type": "function"
    },
    {
      "inputs": [
        {
          "internalType": "address",
          "name": "owner",
          "type": "address"
        }
      ],
      "name": "balanceOf",
      "outputs": [
        {
          "internalType": "uint256",
          "name": "",
          "type": "uint256"
        }
      ],
      "stateMutability": "view",
      "type": "function"
    },
    {
      "inputs": [
        {
          "internalType": "uint256",
          "name": "tokenId",
          "type": "uint256"
        }
      ],
      "name": "getApproved",
      "outputs": [
        {
          "internalType": "address",
          "name": "",
          "type": "address"
        }
      ],
      "stateMutability": "view",
      "type": "function"
    },
    {
      "inputs": [
        {
          "internalType": "address",
          "name": "owner",
          "type": "address"
        },
        {
          "internalType": "address",
          "name": "operator",
          "type": "address"
        }
      ],
      "name": "isApprovedForAll",
      "outputs": [
        {
          "internalType": "bool",
          "name": "",
          "type": "bool"
        }
      ],
      "stateMutability": "view",
      "type": "function"
    },
    {
      "inputs": [
        {
          "internalType": "address",
          "name": "recipient",
          "type": "address"
        }
      ],
      "name": "mintNFT",
      "outputs": [],
      "stateMutability": "payable",
      "type": "function"
    },
    {
      "inputs": [],
      "name": "name",
      "outputs": [
        {
          "internalType": "string",
          "name": "",
          "type": "string"
        }
      ],
      "stateMutability": "view",
      "type": "function"
    },
    {
      "inputs": [
        {
          "internalType": "uint256",
          "name": "tokenId",
          "type": "uint256"
        }
      ],
      "name": "ownerOf",
      "outputs": [
        {
          "internalType": "address",
          "name": "",
          "type": "address"
        }
      ],
      "stateMutability": "view",
      "type": "function"
    },
    {
      "inputs": [
        {
          "internalType": "address",
          "name": "from",
          "type": "address"
        },
        {
          "internalType": "address",
          "name": "to",
          "type": "address"
        },
        {
          "internalType": "uint256",
          "name": "tokenId",
          "type": "uint256"
        }
      ],
      "name": "safeTransferFrom",
      "outputs": [],
      "stateMutability": "nonpayable",
      "type": "function"
    },
    {
      "inputs": [
        {
          "internalType": "address",
          "name": "from",
          "type": "address"
        },
        {
          "internalType": "address",
          "name": "to",
          "type": "address"
        },
        {
          "internalType": "uint256",
          "name": "tokenId",
          "type": "uint256"
        },
        {
          "internalType": "bytes",
          "name": "data",
          "type": "bytes"
        }
      ],
      "name": "safeTransferFrom",
      "outputs": [],
      "stateMutability": "nonpayable",
      "type": "function"
    },
    {
      "inputs": [
        {
          "internalType": "address",
          "name": "operator",
          "type": "address"
        },
        {
          "internalType": "bool",
          "name": "approved",
          "type": "bool"
        }
      ],
      "name": "setApprovalForAll",
      "outputs": [],
      "stateMutability": "nonpayable",
      "type": "function"
    },
    {
      "inputs": [
        {
          "internalType": "bytes4",
          "name": "interfaceId",
          "type": "bytes4"
        }
      ],
      "name": "supportsInterface",
      "outputs": [
        {
          "internalType": "bool",
          "name": "",
          "type": "bool"
        }
      ],
      "stateMutability": "view",
      "type": "function"
    },
    {
      "inputs": [],
      "name": "symbol",
      "outputs": [
        {
          "internalType": "string",
          "name": "",
          "type": "string"
        }
      ],
      "stateMutability": "view",
      "type": "function"
    },
    {
      "inputs": [],
      "name": "tokenCounter",
      "outputs": [
        {
          "internalType": "uint256",
          "name": "",
          "type": "uint256"
        }
      ],
      "stateMutability": "view",
      "type": "function"
    },
    {
      "inputs": [
        {
          "internalType": "uint256",
          "name": "tokenId",
          "type": "uint256"
        }
      ],
      "name": "tokenURI",
      "outputs": [
        {
          "internalType": "string",
          "name": "",
          "type": "string"
        }
      ],
      "stateMutability": "view",
      "type": "function"
    },
    {
      "inputs": [
        {
          "internalType": "address",
          "name": "from",
          "type": "address"
        },
        {
          "internalType": "address",
          "name": "to",
          "type": "address"
        },
        {
          "internalType": "uint256",
          "name": "tokenId",
          "type": "uint256"
        }
      ],
      "name": "transferFrom",
      "outputs": [],
      "stateMutability": "nonpayable",
      "type": "function"
    }
  ],
  "bytecode": "0x608060405234801561001057600080fd5b506040518060400160405280600981526020017f53696d706c654e465400000000000000000000000000000000000000000000008152506040518060400160405280600481526020017f534e465400000000000000000000000000000000000000000000000000000000815250816000908161008c91906102fc565b50806001908161009c91906102fc565b50505060006006819055506103ce565b600081519050919050565b7f4e487b7100000000000000000000000000000000000000000000000000000000600052604160045260246000fd5b7f4e487b7100000000000000000000000000000000000000000000000000000000600052602260045260246000fd5b6000600282049050600182168061012d57607f821691505b6020821081036101405761013f6100e6565b5b50919050565b60008190508160005260206000209050919050565b60006020601f8301049050919050565b600082821b905092915050565b6000600883026101a87fffffffffffffffffffffffffffffffffffffffffffffffffffffffffffffffff8261016b565b6101b2868361016b565b95508019841693508086168417925050509392505050565b6000819050919050565b6000819050919050565b60006101f96101f46101ef846101ca565b6101d4565b6101ca565b9050919050565b6000819050919050565b610213836101de565b61022761021f82610200565b848454610178565b825550505050565b600090565b61023c61022f565b61024781848461020a565b505050565b5b8181101561026b57610260600082610234565b60018101905061024d565b5050565b601f8211156102b05761028181610146565b61028a8461015b565b81016020851015610299578190505b6102ad6102a58561015b565b83018261024c565b50505b505050565b600082821c905092915050565b60006102d3600019846008026102b5565b1980831691505092915050565b60006102ec83836102c2565b9150826002028217905092915050565b610305826100ac565b67ffffffffffffffff81111561031e5761031d6100b7565b5b6103288254610115565b61033382828561026f565b600060209050601f8311600181146103665760008415610354578287015190505b61035e85826102e0565b8655506103c6565b601f19841661037486610146565b60005b8281101561039c57848901518255600182019150602085019450602081019050610377565b868310156103b957848901516103b5601f8916826102c2565b8355505b6001600288020188555050505b505050505050565b612183806103dd6000396000f3fe6080604052600436106100e85760003560e01c80636352211e1161008a578063b88d4fde11610059578063b88d4fde146102f7578063c87b56dd14610320578063d082e3811461035d578063e985e9c514610388576100e8565b80636352211e1461022957806370a082311461026657806395d89b41146102a3578063a22cb465146102ce576100e8565b8063095ea7b3116100c6578063095ea7b31461019257806323b872dd146101bb57806342842e0e146101e457806354ba0f271461020d576100e8565b806301ffc9a7146100ed57806306fdde031461012a578063081812fc14610155575b600080fd5b3480156100f957600080fd5b50610114600480360381019061010f9190611812565b6103c5565b604051610121919061185a565b60405180910390f35b34801561013657600080fd5b5061013f6104a7565b60405161014c9190611905565b60405180910390f35b34801561016157600080fd5b5061017c6004803603810190610177919061195d565b610539565b60405161018991906119cb565b60405180910390f35b34801561019e57600080fd5b506101b960048036038101906101b49190611a12565b610555565b005b3480156101c757600080fd5b506101e260048036038101906101dd9190611a52565b61056b565b005b3480156101f057600080fd5b5061020b60048036038101906102069190611a52565b61066d565b005b61022760048036038101906102229190611aa5565b61068d565b005b34801561023557600080fd5b50610250600480360381019061024b919061195d565b61078d565b60405161025d91906119cb565b60405180910390f35b34801561027257600080fd5b5061028d60048036038101906102889190611aa5565b61079f565b60405161029a9190611ae1565b60405180910390f35b3480156102af57600080fd5b506102b8610859565b6040516102c59190611905565b60405180910390f35b3480156102da57600080fd5b506102f560048036038101906102f09190611b28565b6108eb565b005b34801561030357600080fd5b5061031e60048036038101906103199190611c9d565b610901565b005b34801561032c57600080fd5b506103476004803603810190610342919061195d565b610926565b6040516103549190611905565b60405180910390f35b34801561036957600080fd5b5061037261098f565b60405161037f9190611ae1565b60405180910390f35b34801561039457600080fd5b506103af60048036038101906103aa9190611d20565b610995565b6040516103bc919061185a565b60405180910390f35b60007f80ac58cd000000000000000000000000000000000000000000000000000000007bffffffffffffffffffffffffffffffffffffffffffffffffffffffff1916827bffffffffffffffffffffffffffffffffffffffffffffffffffffffff1916148061049057507f5b5e139f000000000000000000000000000000000000000000000000000000007bffffffffffffffffffffffffffffffffffffffffffffffffffffffff1916827bffffffffffffffffffffffffffffffffffffffffffffffffffffffff1916145b806104a0575061049f82610a29565b5b9050919050565b6060600080546104b690611d8f565b80601f01602080910402602001604051908101604052809291908181526020018280546104e290611d8f565b801561052f5780601f106105045761010080835404028352916020019161052f565b820191906000526020600020905b81548152906001019060200180831161051257829003601f168201915b5050505050905090565b600061054482610a93565b5061054e82610b1b565b9050919050565b6105678282610562610b58565b610b60565b5050565b600073ffffffffffffffffffffffffffffffffffffffff168273ffffffffffffffffffffffffffffffffffffffff16036105dd5760006040517f64a0ae920000000000000000000000000000000000000000000000000000000081526004016105d491906119cb565b60405180910390fd5b60006105f183836105ec610b58565b610b72565b90508373ffffffffffffffffffffffffffffffffffffffff168173ffffffffffffffffffffffffffffffffffffffff1614610667578382826040517f64283d7b00000000000000000000000000000000000000000000000000000000815260040161065e93929190611dc0565b60405180910390fd5b50505050565b61068883838360405180602001604052806000815250610901565b505050565b6005600654106106d2576040517f08c379a00000000000000000000000000000000000000000000000000000000081526004016106c990611e43565b60405180910390fd5b662386f26fc10000341461071b576040517f08c379a000000000000000000000000000000000000000000000000000000000815260040161071290611eaf565b60405180910390fd5b60006107268261079f565b14610766576040517f08c379a000000000000000000000000000000000000000000000000000000000815260040161075d90611f1b565b60405180910390fd5b61077281600654610d8c565b6006600081548092919061078590611f6a565b919050555050565b600061079882610a93565b9050919050565b60008073ffffffffffffffffffffffffffffffffffffffff168273ffffffffffffffffffffffffffffffffffffffff16036108125760006040517f89c62b6400000000000000000000000000000000000000000000000000000000815260040161080991906119cb565b60405180910390fd5b600360008373ffffffffffffffffffffffffffffffffffffffff1673ffffffffffffffffffffffffffffffffffffffff168152602001908152602001600020549050919050565b60606001805461086890611d8f565b80601f016020809104026020016040519081016040528092919081815260200182805461089490611d8f565b80156108e15780601f106108b6576101008083540402835291602001916108e1565b820191906000526020600020905b8154815290600101906020018083116108c457829003601f168201915b5050505050905090565b6108fd6108f6610b58565b8383610daa565b5050565b61090c84848461056b565b610920610917610b58565b85858585610f19565b50505050565b606061093182610a93565b50600061093c6110ca565b9050600081511161095c5760405180602001604052806000815250610987565b80610966846110e1565b604051602001610977929190611fee565b6040516020818303038152906040525b915050919050565b60065481565b6000600560008473ffffffffffffffffffffffffffffffffffffffff1673ffffffffffffffffffffffffffffffffffffffff16815260200190815260200160002060008373ffffffffffffffffffffffffffffffffffffffff1673ffffffffffffffffffffffffffffffffffffffff16815260200190815260200160002060009054906101000a900460ff16905092915050565b60007f01ffc9a7000000000000000000000000000000000000000000000000000000007bffffffffffffffffffffffffffffffffffffffffffffffffffffffff1916827bffffffffffffffffffffffffffffffffffffffffffffffffffffffff1916149050919050565b600080610a9f836111af565b9050600073ffffffffffffffffffffffffffffffffffffffff168173ffffffffffffffffffffffffffffffffffffffff1603610b1257826040517f7e273289000000000000000000000000000000000000000000000000000000008152600401610b099190611ae1565b60405180910390fd5b80915050919050565b60006004600083815260200190815260200160002060009054906101000a900473ffffffffffffffffffffffffffffffffffffffff169050919050565b600033905090565b610b6d83838360016111ec565b505050565b600080610b7e846111af565b9050600073ffffffffffffffffffffffffffffffffffffffff168373ffffffffffffffffffffffffffffffffffffffff1614610bc057610bbf8184866113b1565b5b600073ffffffffffffffffffffffffffffffffffffffff168173ffffffffffffffffffffffffffffffffffffffff1614610c5157610c026000856000806111ec565b6001600360008373ffffffffffffffffffffffffffffffffffffffff1673ffffffffffffffffffffffffffffffffffffffff168152602001908152602001600020600082825403925050819055505b600073ffffffffffffffffffffffffffffffffffffffff168573ffffffffffffffffffffffffffffffffffffffff1614610cd4576001600360008773ffffffffffffffffffffffffffffffffffffffff1673ffffffffffffffffffffffffffffffffffffffff168152602001908152602001600020600082825401925050819055505b846002600086815260200190815260200160002060006101000a81548173ffffffffffffffffffffffffffffffffffffffff021916908373ffffffffffffffffffffffffffffffffffffffff160217905550838573ffffffffffffffffffffffffffffffffffffffff168273ffffffffffffffffffffffffffffffffffffffff167fddf252ad1be2c89b69c2b068fc378daa952ba7f163c4a11628f55a4df523b3ef60405160405180910390a4809150509392505050565b610da6828260405180602001604052806000815250611475565b5050565b600073ffffffffffffffffffffffffffffffffffffffff168273ffffffffffffffffffffffffffffffffffffffff1603610e1b57816040517f5b08ba18000000000000000000000000000000000000000000000000000000008152600401610e1291906119cb565b60405180910390fd5b80600560008573ffffffffffffffffffffffffffffffffffffffff1673ffffffffffffffffffffffffffffffffffffffff16815260200190815260200160002060008473ffffffffffffffffffffffffffffffffffffffff1673ffffffffffffffffffffffffffffffffffffffff16815260200190815260200160002060006101000a81548160ff0219169083151502179055508173ffffffffffffffffffffffffffffffffffffffff168373ffffffffffffffffffffffffffffffffffffffff167f17307eab39ab6107e8899845ad3d59bd9653f200f220920489ca2b5937696c3183604051610f0c919061185a565b60405180910390a3505050565b60008373ffffffffffffffffffffffffffffffffffffffff163b11156110c3578273ffffffffffffffffffffffffffffffffffffffff1663150b7a02868685856040518563ffffffff1660e01b8152600401610f789493929190612067565b6020604051808303816000875af1925050508015610fb457506040513d601f19601f82011682018060405250810190610fb191906120c8565b60015b611038573d8060008114610fe4576040519150601f19603f3d011682016040523d82523d6000602084013e610fe9565b606091505b50600081510361103057836040517f64a0ae9200000000000000000000000000000000000000000000000000000000815260040161102791906119cb565b60405180910390fd5b805181602001fd5b63150b7a0260e01b7bffffffffffffffffffffffffffffffffffffffffffffffffffffffff1916817bffffffffffffffffffffffffffffffffffffffffffffffffffffffff1916146110c157836040517f64a0ae920000000000000000000000000000000000000000000000000000000081526004016110b891906119cb565b60405180910390fd5b505b5050505050565b606060405180602001604052806000815250905090565b6060600060016110f084611499565b01905060008167ffffffffffffffff81111561110f5761110e611b72565b5b6040519080825280601f01601f1916602001820160405280156111415781602001600182028036833780820191505090505b509050600082602001820190505b6001156111a4578080600190039150507f3031323334353637383961626364656600000000000000000000000000000000600a86061a8153600a8581611198576111976120f5565b5b0494506000850361114f575b819350505050919050565b60006002600083815260200190815260200160002060009054906101000a900473ffffffffffffffffffffffffffffffffffffffff169050919050565b80806112255750600073ffffffffffffffffffffffffffffffffffffffff168273ffffffffffffffffffffffffffffffffffffffff1614155b1561135957600061123584610a93565b9050600073ffffffffffffffffffffffffffffffffffffffff168373ffffffffffffffffffffffffffffffffffffffff16141580156112a057508273ffffffffffffffffffffffffffffffffffffffff168173ffffffffffffffffffffffffffffffffffffffff1614155b80156112b357506112b18184610995565b155b156112f557826040517fa9fbf51f0000000000000000000000000000000000000000000000000000000081526004016112ec91906119cb565b60405180910390fd5b811561135757838573ffffffffffffffffffffffffffffffffffffffff168273ffffffffffffffffffffffffffffffffffffffff167f8c5be1e5ebec7d5bd14f71427d1e84f3dd0314c0f7b2291e5b200ac8c7c3b92560405160405180910390a45b505b836004600085815260200190815260200160002060006101000a81548173ffffffffffffffffffffffffffffffffffffffff021916908373ffffffffffffffffffffffffffffffffffffffff16021790555050505050565b6113bc8383836115ec565b61147057600073ffffffffffffffffffffffffffffffffffffffff168373ffffffffffffffffffffffffffffffffffffffff160361143157806040517f7e2732890000000000000000000000000000000000000000000000000000000081526004016114289190611ae1565b60405180910390fd5b81816040517f177e802f000000000000000000000000000000000000000000000000000000008152600401611467929190612124565b60405180910390fd5b505050565b61147f83836116ad565b61149461148a610b58565b6000858585610f19565b505050565b600080600090507a184f03e93ff9f4daa797ed6e38ed64bf6a1f01000000000000000083106114f7577a184f03e93ff9f4daa797ed6e38ed64bf6a1f01000000000000000083816114ed576114ec6120f5565b5b0492506040810190505b6d04ee2d6d415b85acef81000000008310611534576d04ee2d6d415b85acef8100000000838161152a576115296120f5565b5b0492506020810190505b662386f26fc10000831061156357662386f26fc100008381611559576115586120f5565b5b0492506010810190505b6305f5e100831061158c576305f5e1008381611582576115816120f5565b5b0492506008810190505b61271083106115b15761271083816115a7576115a66120f5565b5b0492506004810190505b606483106115d457606483816115ca576115c96120f5565b5b0492506002810190505b600a83106115e3576001810190505b80915050919050565b60008073ffffffffffffffffffffffffffffffffffffffff168373ffffffffffffffffffffffffffffffffffffffff16141580156116a457508273ffffffffffffffffffffffffffffffffffffffff168473ffffffffffffffffffffffffffffffffffffffff16148061166557506116648484610995565b5b806116a357508273ffffffffffffffffffffffffffffffffffffffff1661168b83610b1b565b73ffffffffffffffffffffffffffffffffffffffff16145b5b90509392505050565b600073ffffffffffffffffffffffffffffffffffffffff168273ffffffffffffffffffffffffffffffffffffffff160361171f5760006040517f64a0ae9200000000000000000000000000000000000000000000000000000000815260040161171691906119cb565b60405180910390fd5b600061172d83836000610b72565b9050600073ffffffffffffffffffffffffffffffffffffffff168173ffffffffffffffffffffffffffffffffffffffff16146117a15760006040517f73c6ac6e00000000000000000000000000000000000000000000000000000000815260040161179891906119cb565b60405180910390fd5b505050565b6000604051905090565b600080fd5b600080fd5b60007fffffffff0000000000000000000000000000000000000000000000000000000082169050919050565b6117ef816117ba565b81146117fa57600080fd5b50565b60008135905061180c816117e6565b92915050565b600060208284031215611828576118276117b0565b5b6000611836848285016117fd565b91505092915050565b60008115159050919050565b6118548161183f565b82525050565b600060208201905061186f600083018461184b565b92915050565b600081519050919050565b600082825260208201905092915050565b60005b838110156118af578082015181840152602081019050611894565b60008484015250505050565b6000601f19601f8301169050919050565b60006118d782611875565b6118e18185611880565b93506118f1818560208601611891565b6118fa816118bb565b840191505092915050565b6000602082019050818103600083015261191f81846118cc565b905092915050565b6000819050919050565b61193a81611927565b811461194557600080fd5b50565b60008135905061195781611931565b92915050565b600060208284031215611973576119726117b0565b5b600061198184828501611948565b91505092915050565b600073ffffffffffffffffffffffffffffffffffffffff82169050919050565b60006119b58261198a565b9050919050565b6119c5816119aa565b82525050565b60006020820190506119e060008301846119bc565b92915050565b6119ef816119aa565b81146119fa57600080fd5b50565b600081359050611a0c816119e6565b92915050565b60008060408385031215611a2957611a286117b0565b5b6000611a37858286016119fd565b9250506020611a4885828601611948565b9150509250929050565b600080600060608486031215611a6b57611a6a6117b0565b5b6000611a79868287016119fd565b9350506020611a8a868287016119fd565b9250506040611a9b86828701611948565b9150509250925092565b600060208284031215611abb57611aba6117b0565b5b6000611ac9848285016119fd565b91505092915050565b611adb81611927565b82525050565b6000602082019050611af66000830184611ad2565b92915050565b611b058161183f565b8114611b1057600080fd5b50565b600081359050611b2281611afc565b92915050565b60008060408385031215611b3f57611b3e6117b0565b5b6000611b4d858286016119fd565b9250506020611b5e85828601611b13565b9150509250929050565b600080fd5b600080fd5b7f4e487b7100000000000000000000000000000000000000000000000000000000600052604160045260246000fd5b611baa826118bb565b810181811067ffffffffffffffff82111715611bc957611bc8611b72565b5b80604052505050565b6000611bdc6117a6565b9050611be88282611ba1565b919050565b600067ffffffffffffffff821115611c0857611c07611b72565b5b611c11826118bb565b9050602081019050919050565b82818337600083830152505050565b6000611c40611c3b84611bed565b611bd2565b905082815260208101848484011115611c5c57611c5b611b6d565b5b611c67848285611c1e565b509392505050565b600082601f830112611c8457611c83611b68565b5b8135611c94848260208601611c2d565b91505092915050565b60008060008060808587031215611cb757611cb66117b0565b5b6000611cc5878288016119fd565b9450506020611cd6878288016119fd565b9350506040611ce787828801611948565b925050606085013567ffffffffffffffff811115611d0857611d076117b5565b5b611d1487828801611c6f565b91505092959194509250565b60008060408385031215611d3757611d366117b0565b5b6000611d45858286016119fd565b9250506020611d56858286016119fd565b9150509250929050565b7f4e487b7100000000000000000000000000000000000000000000000000000000600052602260045260246000fd5b60006002820490506001821680611da757607f821691505b602082108103611dba57611db9611d60565b5b50919050565b6000606082019050611dd560008301866119bc565b611de26020830185611ad2565b611def60408301846119bc565b949350505050565b7f546f6b656e206c696d6974207265616368656400000000000000000000000000600082015250565b6000611e2d601383611880565b9150611e3882611df7565b602082019050919050565b60006020820190508181036000830152611e5c81611e20565b9050919050565b7f496e636f727265637420616d6f756e742073656e740000000000000000000000600082015250565b6000611e99601583611880565b9150611ea482611e63565b602082019050919050565b60006020820190508181036000830152611ec881611e8c565b9050919050565b7f4f6e6c79206f6e65204e4654207065722077616c6c6574000000000000000000600082015250565b6000611f05601783611880565b9150611f1082611ecf565b602082019050919050565b60006020820190508181036000830152611f3481611ef8565b9050919050565b7f4e487b7100000000000000000000000000000000000000000000000000000000600052601160045260246000fd5b6000611f7582611927565b91507fffffffffffffffffffffffffffffffffffffffffffffffffffffffffffffffff8203611fa757611fa6611f3b565b5b600182019050919050565b600081905092915050565b6000611fc882611875565b611fd28185611fb2565b9350611fe2818560208601611891565b80840191505092915050565b6000611ffa8285611fbd565b91506120068284611fbd565b91508190509392505050565b600081519050919050565b600082825260208201905092915050565b600061203982612012565b612043818561201d565b9350612053818560208601611891565b61205c816118bb565b840191505092915050565b600060808201905061207c60008301876119bc565b61208960208301866119bc565b6120966040830185611ad2565b81810360608301526120a8818461202e565b905095945050505050565b6000815190506120c2816117e6565b92915050565b6000602082840312156120de576120dd6117b0565b5b60006120ec848285016120b3565b91505092915050565b7f4e487b7100000000000000000000000000000000000000000000000000000000600052601260045260246000fd5b600060408201905061213960008301856119bc565b6121466020830184611ad2565b939250505056fea2646970667358221220f63986cb01a4ae42de8632c538ff028f8fe49e2ba1af53fefa75b54b3e1ce21864736f6c634300081a0033",
  "linkReferences": {},
  "deployedLinkReferences": {}
}