{
  "_format": "hh-sol-artifact-1",
  "contractName": "SimpleNFT",
  "sourceName": "contracts/simpleNFT.sol",
  "abi": [
    {
      "inputs": [
        {
          "internalType": "string",
          "name": "_baseURI",
          "type": "string"
        }
      ],
      "stateMutability": "nonpayable",
      "type": "constructor"
    },
    {
      "inputs": [
        {
          "internalType": "address",
          "name": "sender",
          "type": "address"
        },
        {
          "internalType": "uint256",
          "name": "tokenId",
          "type": "uint256"
        },
        {
          "internalType": "address",
          "name": "owner",
          "type": "address"
        }
      ],
      "name": "ERC721IncorrectOwner",
      "type": "error"
    },
    {
      "inputs": [
        {
          "internalType": "address",
          "name": "operator",
          "type": "address"
        },
        {
          "internalType": "uint256",
          "name": "tokenId",
          "type": "uint256"
        }
      ],
      "name": "ERC721InsufficientApproval",
      "type": "error"
    },
    {
      "inputs": [
        {
          "internalType": "address",
          "name": "approver",
          "type": "address"
        }
      ],
      "name": "ERC721InvalidApprover",
      "type": "error"
    },
    {
      "inputs": [
        {
          "internalType": "address",
          "name": "operator",
          "type": "address"
        }
      ],
      "name": "ERC721InvalidOperator",
      "type": "error"
    },
    {
      "inputs": [
        {
          "internalType": "address",
          "name": "owner",
          "type": "address"
        }
      ],
      "name": "ERC721InvalidOwner",
      "type": "error"
    },
    {
      "inputs": [
        {
          "internalType": "address",
          "name": "receiver",
          "type": "address"
        }
      ],
      "name": "ERC721InvalidReceiver",
      "type": "error"
    },
    {
      "inputs": [
        {
          "internalType": "address",
          "name": "sender",
          "type": "address"
        }
      ],
      "name": "ERC721InvalidSender",
      "type": "error"
    },
    {
      "inputs": [
        {
          "internalType": "uint256",
          "name": "tokenId",
          "type": "uint256"
        }
      ],
      "name": "ERC721NonexistentToken",
      "type": "error"
    },
    {
      "anonymous": false,
      "inputs": [
        {
          "indexed": true,
          "internalType": "address",
          "name": "owner",
          "type": "address"
        },
        {
          "indexed": true,
          "internalType": "address",
          "name": "approved",
          "type": "address"
        },
        {
          "indexed": true,
          "internalType": "uint256",
          "name": "tokenId",
          "type": "uint256"
        }
      ],
      "name": "Approval",
      "type": "event"
    },
    {
      "anonymous": false,
      "inputs": [
        {
          "indexed": true,
          "internalType": "address",
          "name": "owner",
          "type": "address"
        },
        {
          "indexed": true,
          "internalType": "address",
          "name": "operator",
          "type": "address"
        },
        {
          "indexed": false,
          "internalType": "bool",
          "name": "approved",
          "type": "bool"
        }
      ],
      "name": "ApprovalForAll",
      "type": "event"
    },
    {
      "anonymous": false,
      "inputs": [
        {
          "indexed": true,
          "internalType": "address",
          "name": "from",
          "type": "address"
        },
        {
          "indexed": true,
          "internalType": "address",
          "name": "to",
          "type": "address"
        },
        {
          "indexed": true,
          "internalType": "uint256",
          "name": "tokenId",
          "type": "uint256"
        }
      ],
      "name": "Transfer",
      "type": "event"
    },
    {
      "inputs": [
        {
          "internalType": "address",
          "name": "to",
          "type": "address"
        },
        {
          "internalType": "uint256",
          "name": "tokenId",
          "type": "uint256"
        }
      ],
      "name": "approve",
      "outputs": [],
      "stateMutability": "nonpayable",
      "type": "function"
    },
    {
      "inputs": [
        {
          "internalType": "address",
          "name": "owner",
          "type": "address"
        }
      ],
      "name": "balanceOf",
      "outputs": [
        {
          "internalType": "uint256",
          "name": "",
          "type": "uint256"
        }
      ],
      "stateMutability": "view",
      "type": "function"
    },
    {
      "inputs": [],
      "name": "baseURI",
      "outputs": [
        {
          "internalType": "string",
          "name": "",
          "type": "string"
        }
      ],
      "stateMutability": "view",
      "type": "function"
    },
    {
      "inputs": [
        {
          "internalType": "uint256",
          "name": "tokenId",
          "type": "uint256"
        }
      ],
      "name": "getApproved",
      "outputs": [
        {
          "internalType": "address",
          "name": "",
          "type": "address"
        }
      ],
      "stateMutability": "view",
      "type": "function"
    },
    {
      "inputs": [],
      "name": "getTokenURI",
      "outputs": [
        {
          "internalType": "string",
          "name": "",
          "type": "string"
        }
      ],
      "stateMutability": "view",
      "type": "function"
    },
    {
      "inputs": [
        {
          "internalType": "address",
          "name": "owner",
          "type": "address"
        },
        {
          "internalType": "address",
          "name": "operator",
          "type": "address"
        }
      ],
      "name": "isApprovedForAll",
      "outputs": [
        {
          "internalType": "bool",
          "name": "",
          "type": "bool"
        }
      ],
      "stateMutability": "view",
      "type": "function"
    },
    {
      "inputs": [
        {
          "internalType": "address",
          "name": "recipient",
          "type": "address"
        }
      ],
      "name": "mintNFT",
      "outputs": [],
      "stateMutability": "payable",
      "type": "function"
    },
    {
      "inputs": [],
      "name": "name",
      "outputs": [
        {
          "internalType": "string",
          "name": "",
          "type": "string"
        }
      ],
      "stateMutability": "view",
      "type": "function"
    },
    {
      "inputs": [
        {
          "internalType": "uint256",
          "name": "tokenId",
          "type": "uint256"
        }
      ],
      "name": "ownerOf",
      "outputs": [
        {
          "internalType": "address",
          "name": "",
          "type": "address"
        }
      ],
      "stateMutability": "view",
      "type": "function"
    },
    {
      "inputs": [
        {
          "internalType": "address",
          "name": "from",
          "type": "address"
        },
        {
          "internalType": "address",
          "name": "to",
          "type": "address"
        },
        {
          "internalType": "uint256",
          "name": "tokenId",
          "type": "uint256"
        }
      ],
      "name": "safeTransferFrom",
      "outputs": [],
      "stateMutability": "nonpayable",
      "type": "function"
    },
    {
      "inputs": [
        {
          "internalType": "address",
          "name": "from",
          "type": "address"
        },
        {
          "internalType": "address",
          "name": "to",
          "type": "address"
        },
        {
          "internalType": "uint256",
          "name": "tokenId",
          "type": "uint256"
        },
        {
          "internalType": "bytes",
          "name": "data",
          "type": "bytes"
        }
      ],
      "name": "safeTransferFrom",
      "outputs": [],
      "stateMutability": "nonpayable",
      "type": "function"
    },
    {
      "inputs": [
        {
          "internalType": "address",
          "name": "operator",
          "type": "address"
        },
        {
          "internalType": "bool",
          "name": "approved",
          "type": "bool"
        }
      ],
      "name": "setApprovalForAll",
      "outputs": [],
      "stateMutability": "nonpayable",
      "type": "function"
    },
    {
      "inputs": [
        {
          "internalType": "bytes4",
          "name": "interfaceId",
          "type": "bytes4"
        }
      ],
      "name": "supportsInterface",
      "outputs": [
        {
          "internalType": "bool",
          "name": "",
          "type": "bool"
        }
      ],
      "stateMutability": "view",
      "type": "function"
    },
    {
      "inputs": [],
      "name": "symbol",
      "outputs": [
        {
          "internalType": "string",
          "name": "",
          "type": "string"
        }
      ],
      "stateMutability": "view",
      "type": "function"
    },
    {
      "inputs": [],
      "name": "tokenCounter",
      "outputs": [
        {
          "internalType": "uint256",
          "name": "",
          "type": "uint256"
        }
      ],
      "stateMutability": "view",
      "type": "function"
    },
    {
      "inputs": [
        {
          "internalType": "uint256",
          "name": "tokenId",
          "type": "uint256"
        }
      ],
      "name": "tokenURI",
      "outputs": [
        {
          "internalType": "string",
          "name": "",
          "type": "string"
        }
      ],
      "stateMutability": "view",
      "type": "function"
    },
    {
      "inputs": [
        {
          "internalType": "address",
          "name": "from",
          "type": "address"
        },
        {
          "internalType": "address",
          "name": "to",
          "type": "address"
        },
        {
          "internalType": "uint256",
          "name": "tokenId",
          "type": "uint256"
        }
      ],
      "name": "transferFrom",
      "outputs": [],
      "stateMutability": "nonpayable",
      "type": "function"
    }
  ],
  "bytecode": "0x608060405234801561001057600080fd5b506040516128ad3803806128ad83398181016040528101906100329190610253565b6040518060400160405280600981526020017f53696d706c654e465400000000000000000000000000000000000000000000008152506040518060400160405280600481526020017f534e46540000000000000000000000000000000000000000000000000000000081525081600090816100ad91906104bd565b5080600190816100bd91906104bd565b505050600060068190555080600790816100d791906104bd565b505061058f565b6000604051905090565b600080fd5b600080fd5b600080fd5b600080fd5b6000601f19601f8301169050919050565b7f4e487b7100000000000000000000000000000000000000000000000000000000600052604160045260246000fd5b610145826100fc565b810181811067ffffffffffffffff821117156101645761016361010d565b5b80604052505050565b60006101776100de565b9050610183828261013c565b919050565b600067ffffffffffffffff8211156101a3576101a261010d565b5b6101ac826100fc565b9050602081019050919050565b60005b838110156101d75780820151818401526020810190506101bc565b60008484015250505050565b60006101f66101f184610188565b61016d565b905082815260208101848484011115610212576102116100f7565b5b61021d8482856101b9565b509392505050565b600082601f83011261023a576102396100f2565b5b815161024a8482602086016101e3565b91505092915050565b600060208284031215610269576102686100e8565b5b600082015167ffffffffffffffff811115610287576102866100ed565b5b61029384828501610225565b91505092915050565b600081519050919050565b7f4e487b7100000000000000000000000000000000000000000000000000000000600052602260045260246000fd5b600060028204905060018216806102ee57607f821691505b602082108103610301576103006102a7565b5b50919050565b60008190508160005260206000209050919050565b60006020601f8301049050919050565b600082821b905092915050565b6000600883026103697fffffffffffffffffffffffffffffffffffffffffffffffffffffffffffffffff8261032c565b610373868361032c565b95508019841693508086168417925050509392505050565b6000819050919050565b6000819050919050565b60006103ba6103b56103b08461038b565b610395565b61038b565b9050919050565b6000819050919050565b6103d48361039f565b6103e86103e0826103c1565b848454610339565b825550505050565b600090565b6103fd6103f0565b6104088184846103cb565b505050565b5b8181101561042c576104216000826103f5565b60018101905061040e565b5050565b601f8211156104715761044281610307565b61044b8461031c565b8101602085101561045a578190505b61046e6104668561031c565b83018261040d565b50505b505050565b600082821c905092915050565b600061049460001984600802610476565b1980831691505092915050565b60006104ad8383610483565b9150826002028217905092915050565b6104c68261029c565b67ffffffffffffffff8111156104df576104de61010d565b5b6104e982546102d6565b6104f4828285610430565b600060209050601f8311600181146105275760008415610515578287015190505b61051f85826104a1565b865550610587565b601f19841661053586610307565b60005b8281101561055d57848901518255600182019150602085019450602081019050610538565b8683101561057a5784890151610576601f891682610483565b8355505b6001600288020188555050505b505050505050565b61230f8061059e6000396000f3fe6080604052600436106100fe5760003560e01c80636c0360eb11610095578063b88d4fde11610064578063b88d4fde14610338578063c87b56dd14610361578063d082e3811461039e578063d4a19116146103c9578063e985e9c5146103f4576100fe565b80636c0360eb1461027c57806370a08231146102a757806395d89b41146102e4578063a22cb4651461030f576100fe565b806323b872dd116100d157806323b872dd146101d157806342842e0e146101fa57806354ba0f27146102235780636352211e1461023f576100fe565b806301ffc9a71461010357806306fdde0314610140578063081812fc1461016b578063095ea7b3146101a8575b600080fd5b34801561010f57600080fd5b5061012a6004803603810190610125919061199e565b610431565b60405161013791906119e6565b60405180910390f35b34801561014c57600080fd5b50610155610513565b6040516101629190611a91565b60405180910390f35b34801561017757600080fd5b50610192600480360381019061018d9190611ae9565b6105a5565b60405161019f9190611b57565b60405180910390f35b3480156101b457600080fd5b506101cf60048036038101906101ca9190611b9e565b6105c1565b005b3480156101dd57600080fd5b506101f860048036038101906101f39190611bde565b6105d7565b005b34801561020657600080fd5b50610221600480360381019061021c9190611bde565b6106d9565b005b61023d60048036038101906102389190611c31565b6106f9565b005b34801561024b57600080fd5b5061026660048036038101906102619190611ae9565b6107f9565b6040516102739190611b57565b60405180910390f35b34801561028857600080fd5b5061029161080b565b60405161029e9190611a91565b60405180910390f35b3480156102b357600080fd5b506102ce60048036038101906102c99190611c31565b610899565b6040516102db9190611c6d565b60405180910390f35b3480156102f057600080fd5b506102f9610953565b6040516103069190611a91565b60405180910390f35b34801561031b57600080fd5b5061033660048036038101906103319190611cb4565b6109e5565b005b34801561034457600080fd5b5061035f600480360381019061035a9190611e29565b6109fb565b005b34801561036d57600080fd5b5061038860048036038101906103839190611ae9565b610a20565b6040516103959190611a91565b60405180910390f35b3480156103aa57600080fd5b506103b3610a89565b6040516103c09190611c6d565b60405180910390f35b3480156103d557600080fd5b506103de610a8f565b6040516103eb9190611a91565b60405180910390f35b34801561040057600080fd5b5061041b60048036038101906104169190611eac565b610b21565b60405161042891906119e6565b60405180910390f35b60007f80ac58cd000000000000000000000000000000000000000000000000000000007bffffffffffffffffffffffffffffffffffffffffffffffffffffffff1916827bffffffffffffffffffffffffffffffffffffffffffffffffffffffff191614806104fc57507f5b5e139f000000000000000000000000000000000000000000000000000000007bffffffffffffffffffffffffffffffffffffffffffffffffffffffff1916827bffffffffffffffffffffffffffffffffffffffffffffffffffffffff1916145b8061050c575061050b82610bb5565b5b9050919050565b60606000805461052290611f1b565b80601f016020809104026020016040519081016040528092919081815260200182805461054e90611f1b565b801561059b5780601f106105705761010080835404028352916020019161059b565b820191906000526020600020905b81548152906001019060200180831161057e57829003601f168201915b5050505050905090565b60006105b082610c1f565b506105ba82610ca7565b9050919050565b6105d382826105ce610ce4565b610cec565b5050565b600073ffffffffffffffffffffffffffffffffffffffff168273ffffffffffffffffffffffffffffffffffffffff16036106495760006040517f64a0ae920000000000000000000000000000000000000000000000000000000081526004016106409190611b57565b60405180910390fd5b600061065d8383610658610ce4565b610cfe565b90508373ffffffffffffffffffffffffffffffffffffffff168173ffffffffffffffffffffffffffffffffffffffff16146106d3578382826040517f64283d7b0000000000000000000000000000000000000000000000000000000081526004016106ca93929190611f4c565b60405180910390fd5b50505050565b6106f4838383604051806020016040528060008152506109fb565b505050565b60056006541061073e576040517f08c379a000000000000000000000000000000000000000000000000000000000815260040161073590611fcf565b60405180910390fd5b662386f26fc100003414610787576040517f08c379a000000000000000000000000000000000000000000000000000000000815260040161077e9061203b565b60405180910390fd5b600061079282610899565b146107d2576040517f08c379a00000000000000000000000000000000000000000000000000000000081526004016107c9906120a7565b60405180910390fd5b6107de81600654610f18565b600660008154809291906107f1906120f6565b919050555050565b600061080482610c1f565b9050919050565b6007805461081890611f1b565b80601f016020809104026020016040519081016040528092919081815260200182805461084490611f1b565b80156108915780601f1061086657610100808354040283529160200191610891565b820191906000526020600020905b81548152906001019060200180831161087457829003601f168201915b505050505081565b60008073ffffffffffffffffffffffffffffffffffffffff168273ffffffffffffffffffffffffffffffffffffffff160361090c5760006040517f89c62b640000000000000000000000000000000000000000000000000000000081526004016109039190611b57565b60405180910390fd5b600360008373ffffffffffffffffffffffffffffffffffffffff1673ffffffffffffffffffffffffffffffffffffffff168152602001908152602001600020549050919050565b60606001805461096290611f1b565b80601f016020809104026020016040519081016040528092919081815260200182805461098e90611f1b565b80156109db5780601f106109b0576101008083540402835291602001916109db565b820191906000526020600020905b8154815290600101906020018083116109be57829003601f168201915b5050505050905090565b6109f76109f0610ce4565b8383610f36565b5050565b610a068484846105d7565b610a1a610a11610ce4565b858585856110a5565b50505050565b6060610a2b82610c1f565b506000610a36611256565b90506000815111610a565760405180602001604052806000815250610a81565b80610a608461126d565b604051602001610a7192919061217a565b6040516020818303038152906040525b915050919050565b60065481565b606060078054610a9e90611f1b565b80601f0160208091040260200160405190810160405280929190818152602001828054610aca90611f1b565b8015610b175780601f10610aec57610100808354040283529160200191610b17565b820191906000526020600020905b815481529060010190602001808311610afa57829003601f168201915b5050505050905090565b6000600560008473ffffffffffffffffffffffffffffffffffffffff1673ffffffffffffffffffffffffffffffffffffffff16815260200190815260200160002060008373ffffffffffffffffffffffffffffffffffffffff1673ffffffffffffffffffffffffffffffffffffffff16815260200190815260200160002060009054906101000a900460ff16905092915050565b60007f01ffc9a7000000000000000000000000000000000000000000000000000000007bffffffffffffffffffffffffffffffffffffffffffffffffffffffff1916827bffffffffffffffffffffffffffffffffffffffffffffffffffffffff1916149050919050565b600080610c2b8361133b565b9050600073ffffffffffffffffffffffffffffffffffffffff168173ffffffffffffffffffffffffffffffffffffffff1603610c9e57826040517f7e273289000000000000000000000000000000000000000000000000000000008152600401610c959190611c6d565b60405180910390fd5b80915050919050565b60006004600083815260200190815260200160002060009054906101000a900473ffffffffffffffffffffffffffffffffffffffff169050919050565b600033905090565b610cf98383836001611378565b505050565b600080610d0a8461133b565b9050600073ffffffffffffffffffffffffffffffffffffffff168373ffffffffffffffffffffffffffffffffffffffff1614610d4c57610d4b81848661153d565b5b600073ffffffffffffffffffffffffffffffffffffffff168173ffffffffffffffffffffffffffffffffffffffff1614610ddd57610d8e600085600080611378565b6001600360008373ffffffffffffffffffffffffffffffffffffffff1673ffffffffffffffffffffffffffffffffffffffff168152602001908152602001600020600082825403925050819055505b600073ffffffffffffffffffffffffffffffffffffffff168573ffffffffffffffffffffffffffffffffffffffff1614610e60576001600360008773ffffffffffffffffffffffffffffffffffffffff1673ffffffffffffffffffffffffffffffffffffffff168152602001908152602001600020600082825401925050819055505b846002600086815260200190815260200160002060006101000a81548173ffffffffffffffffffffffffffffffffffffffff021916908373ffffffffffffffffffffffffffffffffffffffff160217905550838573ffffffffffffffffffffffffffffffffffffffff168273ffffffffffffffffffffffffffffffffffffffff167fddf252ad1be2c89b69c2b068fc378daa952ba7f163c4a11628f55a4df523b3ef60405160405180910390a4809150509392505050565b610f32828260405180602001604052806000815250611601565b5050565b600073ffffffffffffffffffffffffffffffffffffffff168273ffffffffffffffffffffffffffffffffffffffff1603610fa757816040517f5b08ba18000000000000000000000000000000000000000000000000000000008152600401610f9e9190611b57565b60405180910390fd5b80600560008573ffffffffffffffffffffffffffffffffffffffff1673ffffffffffffffffffffffffffffffffffffffff16815260200190815260200160002060008473ffffffffffffffffffffffffffffffffffffffff1673ffffffffffffffffffffffffffffffffffffffff16815260200190815260200160002060006101000a81548160ff0219169083151502179055508173ffffffffffffffffffffffffffffffffffffffff168373ffffffffffffffffffffffffffffffffffffffff167f17307eab39ab6107e8899845ad3d59bd9653f200f220920489ca2b5937696c318360405161109891906119e6565b60405180910390a3505050565b60008373ffffffffffffffffffffffffffffffffffffffff163b111561124f578273ffffffffffffffffffffffffffffffffffffffff1663150b7a02868685856040518563ffffffff1660e01b815260040161110494939291906121f3565b6020604051808303816000875af192505050801561114057506040513d601f19601f8201168201806040525081019061113d9190612254565b60015b6111c4573d8060008114611170576040519150601f19603f3d011682016040523d82523d6000602084013e611175565b606091505b5060008151036111bc57836040517f64a0ae920000000000000000000000000000000000000000000000000000000081526004016111b39190611b57565b60405180910390fd5b805181602001fd5b63150b7a0260e01b7bffffffffffffffffffffffffffffffffffffffffffffffffffffffff1916817bffffffffffffffffffffffffffffffffffffffffffffffffffffffff19161461124d57836040517f64a0ae920000000000000000000000000000000000000000000000000000000081526004016112449190611b57565b60405180910390fd5b505b5050505050565b606060405180602001604052806000815250905090565b60606000600161127c84611625565b01905060008167ffffffffffffffff81111561129b5761129a611cfe565b5b6040519080825280601f01601f1916602001820160405280156112cd5781602001600182028036833780820191505090505b509050600082602001820190505b600115611330578080600190039150507f3031323334353637383961626364656600000000000000000000000000000000600a86061a8153600a858161132457611323612281565b5b049450600085036112db575b819350505050919050565b60006002600083815260200190815260200160002060009054906101000a900473ffffffffffffffffffffffffffffffffffffffff169050919050565b80806113b15750600073ffffffffffffffffffffffffffffffffffffffff168273ffffffffffffffffffffffffffffffffffffffff1614155b156114e55760006113c184610c1f565b9050600073ffffffffffffffffffffffffffffffffffffffff168373ffffffffffffffffffffffffffffffffffffffff161415801561142c57508273ffffffffffffffffffffffffffffffffffffffff168173ffffffffffffffffffffffffffffffffffffffff1614155b801561143f575061143d8184610b21565b155b1561148157826040517fa9fbf51f0000000000000000000000000000000000000000000000000000000081526004016114789190611b57565b60405180910390fd5b81156114e357838573ffffffffffffffffffffffffffffffffffffffff168273ffffffffffffffffffffffffffffffffffffffff167f8c5be1e5ebec7d5bd14f71427d1e84f3dd0314c0f7b2291e5b200ac8c7c3b92560405160405180910390a45b505b836004600085815260200190815260200160002060006101000a81548173ffffffffffffffffffffffffffffffffffffffff021916908373ffffffffffffffffffffffffffffffffffffffff16021790555050505050565b611548838383611778565b6115fc57600073ffffffffffffffffffffffffffffffffffffffff168373ffffffffffffffffffffffffffffffffffffffff16036115bd57806040517f7e2732890000000000000000000000000000000000000000000000000000000081526004016115b49190611c6d565b60405180910390fd5b81816040517f177e802f0000000000000000000000000000000000000000000000000000000081526004016115f39291906122b0565b60405180910390fd5b505050565b61160b8383611839565b611620611616610ce4565b60008585856110a5565b505050565b600080600090507a184f03e93ff9f4daa797ed6e38ed64bf6a1f0100000000000000008310611683577a184f03e93ff9f4daa797ed6e38ed64bf6a1f010000000000000000838161167957611678612281565b5b0492506040810190505b6d04ee2d6d415b85acef810000000083106116c0576d04ee2d6d415b85acef810000000083816116b6576116b5612281565b5b0492506020810190505b662386f26fc1000083106116ef57662386f26fc1000083816116e5576116e4612281565b5b0492506010810190505b6305f5e1008310611718576305f5e100838161170e5761170d612281565b5b0492506008810190505b612710831061173d57612710838161173357611732612281565b5b0492506004810190505b60648310611760576064838161175657611755612281565b5b0492506002810190505b600a831061176f576001810190505b80915050919050565b60008073ffffffffffffffffffffffffffffffffffffffff168373ffffffffffffffffffffffffffffffffffffffff161415801561183057508273ffffffffffffffffffffffffffffffffffffffff168473ffffffffffffffffffffffffffffffffffffffff1614806117f157506117f08484610b21565b5b8061182f57508273ffffffffffffffffffffffffffffffffffffffff1661181783610ca7565b73ffffffffffffffffffffffffffffffffffffffff16145b5b90509392505050565b600073ffffffffffffffffffffffffffffffffffffffff168273ffffffffffffffffffffffffffffffffffffffff16036118ab5760006040517f64a0ae920000000000000000000000000000000000000000000000000000000081526004016118a29190611b57565b60405180910390fd5b60006118b983836000610cfe565b9050600073ffffffffffffffffffffffffffffffffffffffff168173ffffffffffffffffffffffffffffffffffffffff161461192d5760006040517f73c6ac6e0000000000000000000000000000000000000000000000000000000081526004016119249190611b57565b60405180910390fd5b505050565b6000604051905090565b600080fd5b600080fd5b60007fffffffff0000000000000000000000000000000000000000000000000000000082169050919050565b61197b81611946565b811461198657600080fd5b50565b60008135905061199881611972565b92915050565b6000602082840312156119b4576119b361193c565b5b60006119c284828501611989565b91505092915050565b60008115159050919050565b6119e0816119cb565b82525050565b60006020820190506119fb60008301846119d7565b92915050565b600081519050919050565b600082825260208201905092915050565b60005b83811015611a3b578082015181840152602081019050611a20565b60008484015250505050565b6000601f19601f8301169050919050565b6000611a6382611a01565b611a6d8185611a0c565b9350611a7d818560208601611a1d565b611a8681611a47565b840191505092915050565b60006020820190508181036000830152611aab8184611a58565b905092915050565b6000819050919050565b611ac681611ab3565b8114611ad157600080fd5b50565b600081359050611ae381611abd565b92915050565b600060208284031215611aff57611afe61193c565b5b6000611b0d84828501611ad4565b91505092915050565b600073ffffffffffffffffffffffffffffffffffffffff82169050919050565b6000611b4182611b16565b9050919050565b611b5181611b36565b82525050565b6000602082019050611b6c6000830184611b48565b92915050565b611b7b81611b36565b8114611b8657600080fd5b50565b600081359050611b9881611b72565b92915050565b60008060408385031215611bb557611bb461193c565b5b6000611bc385828601611b89565b9250506020611bd485828601611ad4565b9150509250929050565b600080600060608486031215611bf757611bf661193c565b5b6000611c0586828701611b89565b9350506020611c1686828701611b89565b9250506040611c2786828701611ad4565b9150509250925092565b600060208284031215611c4757611c4661193c565b5b6000611c5584828501611b89565b91505092915050565b611c6781611ab3565b82525050565b6000602082019050611c826000830184611c5e565b92915050565b611c91816119cb565b8114611c9c57600080fd5b50565b600081359050611cae81611c88565b92915050565b60008060408385031215611ccb57611cca61193c565b5b6000611cd985828601611b89565b9250506020611cea85828601611c9f565b9150509250929050565b600080fd5b600080fd5b7f4e487b7100000000000000000000000000000000000000000000000000000000600052604160045260246000fd5b611d3682611a47565b810181811067ffffffffffffffff82111715611d5557611d54611cfe565b5b80604052505050565b6000611d68611932565b9050611d748282611d2d565b919050565b600067ffffffffffffffff821115611d9457611d93611cfe565b5b611d9d82611a47565b9050602081019050919050565b82818337600083830152505050565b6000611dcc611dc784611d79565b611d5e565b905082815260208101848484011115611de857611de7611cf9565b5b611df3848285611daa565b509392505050565b600082601f830112611e1057611e0f611cf4565b5b8135611e20848260208601611db9565b91505092915050565b60008060008060808587031215611e4357611e4261193c565b5b6000611e5187828801611b89565b9450506020611e6287828801611b89565b9350506040611e7387828801611ad4565b925050606085013567ffffffffffffffff811115611e9457611e93611941565b5b611ea087828801611dfb565b91505092959194509250565b60008060408385031215611ec357611ec261193c565b5b6000611ed185828601611b89565b9250506020611ee285828601611b89565b9150509250929050565b7f4e487b7100000000000000000000000000000000000000000000000000000000600052602260045260246000fd5b60006002820490506001821680611f3357607f821691505b602082108103611f4657611f45611eec565b5b50919050565b6000606082019050611f616000830186611b48565b611f6e6020830185611c5e565b611f7b6040830184611b48565b949350505050565b7f546f6b656e206c696d6974207265616368656400000000000000000000000000600082015250565b6000611fb9601383611a0c565b9150611fc482611f83565b602082019050919050565b60006020820190508181036000830152611fe881611fac565b9050919050565b7f496e636f727265637420616d6f756e742073656e740000000000000000000000600082015250565b6000612025601583611a0c565b915061203082611fef565b602082019050919050565b6000602082019050818103600083015261205481612018565b9050919050565b7f4f6e6c79206f6e65204e4654207065722077616c6c6574000000000000000000600082015250565b6000612091601783611a0c565b915061209c8261205b565b602082019050919050565b600060208201905081810360008301526120c081612084565b9050919050565b7f4e487b7100000000000000000000000000000000000000000000000000000000600052601160045260246000fd5b600061210182611ab3565b91507fffffffffffffffffffffffffffffffffffffffffffffffffffffffffffffffff8203612133576121326120c7565b5b600182019050919050565b600081905092915050565b600061215482611a01565b61215e818561213e565b935061216e818560208601611a1d565b80840191505092915050565b60006121868285612149565b91506121928284612149565b91508190509392505050565b600081519050919050565b600082825260208201905092915050565b60006121c58261219e565b6121cf81856121a9565b93506121df818560208601611a1d565b6121e881611a47565b840191505092915050565b60006080820190506122086000830187611b48565b6122156020830186611b48565b6122226040830185611c5e565b818103606083015261223481846121ba565b905095945050505050565b60008151905061224e81611972565b92915050565b60006020828403121561226a5761226961193c565b5b60006122788482850161223f565b91505092915050565b7f4e487b7100000000000000000000000000000000000000000000000000000000600052601260045260246000fd5b60006040820190506122c56000830185611b48565b6122d26020830184611c5e565b939250505056fea264697066735822122023118612c48283bef0e887868b755855a66be7d5f3b9fb3372811221ff11b5c164736f6c634300081a0033",
  "linkReferences": {},
  "deployedLinkReferences": {}
}